:100000000C9466000C948E000C948E000C948E0060
:100010000C948E000C948E000C948E000C948E0028
:100020000C948E000C948E000C948E000C948E0018
:100030000C948E000C948E000C948E000C948E0008
:100040000C94E2030C948E000C9495010C946F01B7
:100050000C948E000C948E000C948E000C948E00E8
:100060000C948E000C948E00BB070C081D082E0803
:100070003F085008610872080000000800020100F3
:100080000003040700000000000000000000000062
:10009000250028002B0000000000240027002A0073
:1000A000040404040404040402020202020203031E
:1000B0000303030301020408102040800102040826
:1000C0001020010204081020EA08DE0811241FBED7
:1000D000CFEFD8E0DEBFCDBF24E0A0ECB3E001C09D
:1000E0001D92A838B207E1F713E0A0E0B1E0E4EE1A
:1000F000F7E102C005900D92A03CB107D9F710E0DE
:10010000C5E6D0E004C02197FE010E94CA09C436AA
:10011000D107C9F70E94A8040C94E50B0C940000C9
:10012000089580E090E00895FC01538D448D252FC3
:1001300030E0842F90E0821B930B541710F0CF9681
:10014000089501970895FC01918D828D981761F0B3
:10015000828DDF01A80FB11D5D968C91928D9F5FFE
:100160009F73928F90E008958FEF9FEF0895FC01A9
:10017000918D828D981731F0828DE80FF11D858D5C
:1001800090E008958FEF9FEF0895FC01918D228DEF
:10019000892F90E0805C9F4F821B91098F73992774
:1001A000089587EC93E00E94C50021E0892B09F4B3
:1001B00020E0822F0895FC01848DDF01A80FB11D7E
:1001C000A35ABF4F2C91848D90E001968F7399278D
:1001D000848FA689B7892C93A089B1898C9180647A
:1001E0008C93938D848D981306C00288F389E02D3B
:1001F00080818F7D80830895EF92FF920F931F93EC
:10020000CF93DF93EC0181E0888F9B8D8C8D9813C9
:1002100005C0E889F989808185FD24C0F62E0B8D03
:1002200010E00F5F1F4F0F731127E02E8C8DE81227
:100230000CC00FB607FCFACFE889F989808185FFE9
:10024000F5CFCE010E94DB00F1CF8B8DFE01E80FD0
:10025000F11DE35AFF4FF0820B8FEA89FB89808101
:10026000806207C0EE89FF896083E889F98980810F
:100270008064808381E090E0DF91CF911F910F91A6
:10028000FF90EF900895CF93DF93EC01888D882342
:10029000C9F0EA89FB89808185FD05C0A889B989F3
:1002A0008C9186FD0FC00FB607FCF5CF808185FFCE
:1002B000F2CFA889B9898C9185FFEDCFCE010E943C
:1002C000DB00E7CFDF91CF91089580E090E0892BAC
:1002D00029F00E94D10081110C94000008951F9212
:1002E0000F920FB60F9211242F933F934F935F936A
:1002F0006F937F938F939F93AF93BF93EF93FF93EE
:1003000087EC93E00E94DB00FF91EF91BF91AF91EA
:100310009F918F917F916F915F914F913F912F911D
:100320000F900FBE0F901F9018951F920F920FB64F
:100330000F9211242F938F939F93EF93FF93E0914C
:10034000D703F091D8038081E091DD03F091DE03C3
:1003500082FD12C090818091E0038F5F8F732091A6
:10036000E103821751F0E091E003F0E0E953FC4F24
:10037000958F8093E00301C08081FF91EF919F9161
:100380008F912F910F900FBE0F901F901895089589
:100390008EBD00000DB407FEFDCF8EB508958CBD57
:1003A0009DBD08953FB7F89480917F04909180049B
:1003B000A0918104B091820426B5A89B05C02F3F6F
:1003C00019F00196A11DB11D3FBFBA2FA92F982F7B
:1003D0008827820F911DA11DB11DBC01CD0142E0F6
:1003E000660F771F881F991F4A95D1F70895CF92FE
:1003F000DF92EF92FF920F931F93CF93DF936C01E5
:100400007A018B01C0E0D0E0CE15DF0589F0D8017C
:100410006D918D01D601ED91FC910190F081E02D5F
:10042000C6010995892B11F47E0102C02196ECCFFB
:10043000C701DF91CF911F910F91FF90EF90DF9057
:10044000CF9008950E94C70B90E0FC01EC54FF4F41
:100450002491FC01E056FF4F8491882399F090E0AD
:10046000880F991FFC01EA56FF4FA591B491FC013A
:10047000E457FF4F859194918FB7F894EC91E22B5C
:10048000EC938FBF0895FC018091680490916904FA
:10049000892B21F421E0309749F413C08091640442
:1004A00090916504309731F421E0FC01808188232C
:1004B00041F006C0BF010E94D50B21E0892B09F055
:1004C00020E0822F0895009769F0FC010190002040
:1004D000E9F73197AF01481B590BBC0187EC93E05A
:1004E0000C94F70180E090E00895CF93DF930E9491
:1004F0006302EC018BEA91E00E9463028C0F9D1F66
:10050000DF91CF9108958F929F92AF92BF920F93F8
:100510001F93CF93DF93CDB7DEB7A1970FB6F894B3
:10052000DEBF0FBECDBF19A2423008F44AE08E01F3
:100530000F5D1F4F842E912CA12CB12CA50194018D
:100540000E94A809E62FB901CA0101501109EA3039
:1005500014F4E05D01C0E95CD801EC93232B242B5B
:10056000252B61F7C8010E946302A1960FB6F8948B
:10057000DEBF0FBECDBFDF91CF911F910F91BF9016
:10058000AF909F908F90089580916404909165043E
:10059000009711F00C94350960E070E0CB010895EC
:1005A00090E0FC01E858FF4F3491FC01EC54FF4F00
:1005B0002491FC01E056FF4FE491EE2309F43BC087
:1005C000332339F1333091F038F43130A9F032303F
:1005D00001F584B58F7D12C0373091F03830A1F02D
:1005E0003430B9F4809180008F7D03C08091800009
:1005F0008F77809380000DC084B58F7784BD09C04C
:100600008091B0008F7703C08091B0008F7D809380
:10061000B000F0E0EE0FFF1FE457FF4FA591B4913B
:100620008FB7F894EC91611103C020952E2301C07F
:100630002E2B2C938FBF08951F93CF93DF93182FEA
:1006400080E591E00E94CF01C0E7D4E060E08E81B8
:100650000E94D00283E00E94C801812F0E94C8013D
:1006600080E00E94C801182F61E08E810E94D002B4
:100670000E94C701812FDF91CF911F910895EF92C2
:10068000FF920F931F93CF93DF931F92CDB7DEB7E7
:10069000082F162F80E591E049830E94CF0180E763
:1006A000E82E84E0F82E60E0F70186810E94D002F7
:1006B00085E00E94C801802F0E94C801812F0E94FE
:1006C000C8014981842F0E94C80161E0F701868139
:1006D0000E94D0020F90DF91CF911F910F91FF9058
:1006E000EF900C94C701CF93C82F482F60EE8FE096
:1006F0000E943F038FE00E941C03807E91E08C13D8
:1007000001C090E0892FCF9108950F931F93CF934D
:10071000DF93082F162F80E591E00E94CF01C0E7FC
:10072000D4E060E08E810E94D00282E00E94C80185
:10073000802F0E94C801812F0E94C80161E08E8134
:100740000E94D002DF91CF911F910F910C94C701AD
:100750008F929F92AF92BF92CF92DF92EF92FF92D1
:100760006B017C010E94D2014B015C01C114D104D8
:10077000E104F104F1F00E94D201DC01CB018819FF
:100780009909AA09BB09883E9340A105B10570F3F8
:1007900021E0C21AD108E108F10888EE880E83E052
:1007A000981EA11CB11CC114D104E104F10419F775
:1007B000DDCFFF90EF90DF90CF90BF90AF909F90F4
:1007C0008F9008951F920F920FB60F9211242F93BE
:1007D0003F938F939F93AF93BF9380917B049091AE
:1007E0007C04A0917D04B0917E0430917A0423E0D2
:1007F000230F2D3720F40196A11DB11D05C026E859
:10080000230F0296A11DB11D20937A0480937B04CF
:1008100090937C04A0937D04B0937E0480917F0428
:1008200090918004A0918104B09182040196A11D51
:10083000B11D80937F0490938004A0938104B093B2
:100840008204BF91AF919F918F913F912F910F9013
:100850000FBE0F901F9018950F931F93CF93DF93A8
:10086000EC0188819981009729F02A813B81261724
:10087000370788F48B016F5F7F4F0E94FD0A009756
:1008800061F0998388831B830A832C813D81232B0C
:1008900011F4FC01108281E001C080E0DF91CF9172
:1008A0001F910F910895CF93DF93EC018881998177
:1008B000009711F00E94650A198218821D821C821D
:1008C0001B821A82DF91CF910895EF92FF920F93CE
:1008D0001F93CF93DF93EC017B018A01BA010E9441
:1008E0002C04811104C0CE010E94530407C01D8353
:1008F0000C83B701888199810E94DE0BCE01DF91C4
:10090000CF911F910F91FF90EF900895CF93DF93B8
:10091000EC0140E050E06FEA71E00E946504CE0116
:10092000DF91CF910895FC0111821082138212820F
:10093000158214826115710551F0FB0101900020B0
:10094000E9F73197AF01461B570B0C9465040895E6
:10095000CF93DF93CDB7DEB727970FB6F894DEBFFE
:100960000FBECDBF789484B5826084BD84B58160AC
:1009700084BD85B5826085BD85B5816085BD80916A
:100980006E00816080936E001092810080918100E2
:1009900082608093810080918100816080938100DA
:1009A000809180008160809380008091B10084609C
:1009B0008093B1008091B00081608093B0008091FD
:1009C0007A00846080937A0080917A0082608093BC
:1009D0007A0080917A00816080937A0080917A0019
:1009E000806880937A001092C100E091D703F09163
:1009F000D80382E08083E091D303F091D403108286
:100A0000E091D503F091D60380E180831092DF035B
:100A1000E091DB03F091DC0386E08083E091D90371
:100A2000F091DA03808180618083E091D903F091B5
:100A3000DA03808188608083E091D903F091DA0342
:100A4000808180688083E091D903F091DA0380810E
:100A50008F7D8083BAEAAB2EB0E0BB2E1EEBE12E79
:100A600010E0F12EDFB6F8948091C003811122C00E
:100A7000F5018491F701249190E0880F991F8A561F
:100A80009F4FFC01A591B4918C91282321F461E042
:100A90008AE00E94D0028AE00E9424028CB5806124
:100AA0008CBD8CB580648CBD8DE00E9424028BE0EF
:100AB0000E9424028091C0038F5F8093C003DFBE39
:100AC00080E591E00E94CF0160E0809176040E9471
:100AD000D00280EC0E94C80161E0809176040E94FF
:100AE000D0026AE070E080E090E00E94A80380E815
:100AF0000E9473038823A9F06AE070E080E090E030
:100B00000E94A8038BE291E00E94750284E491E0C8
:100B10000E94750264E670E080E090E00E94A80305
:100B2000A1CF6AE070E080E090E00E94A80361E459
:100B30008AE20E94850361EF89E20E94850365E8ED
:100B400088E20E9485036AE070E080E090E00E9405
:100B5000A80310E360E0812F0E94850360E080E13C
:100B6000810F0E94850360E080E2810F0E9485036F
:100B70001F5F1E3379F760E080E60E94850360E026
:100B800080E70E94850363E08BE20E94850344E0D6
:100B900064E680E60E943F0340E060E680E70E9452
:100BA0003F0380E00E9473038111A6CF6AE070E0EA
:100BB00080E090E00E94A8038FE591E00E9475021A
:100BC00064E670E080E090E00E94A80387E791E08F
:100BD0000E94750264E670E080E090E00E94A80345
:100BE000CE0101967C0176E1872E71E0972EE3E23B
:100BF000AE2EB12CF4E03F2E380E00E011E0085F7D
:100C000087EC93E00E94C500181619060CF07EC010
:100C100087EC93E00E94A3008093C1038A3009F01F
:100C200052C067EA71E0C7010E94930480916E048C
:100C300090916F0460906A0470906B04CD80DE80A8
:100C40006114710409F4ACC10097A1F0C80ED91E5B
:100C5000B601C7010E942C04882309F4A1C129818F
:100C60003A818D819E81B301820F931F0E94DE0B1A
:100C7000DE82CD824D815E8169817A8187EC93E04D
:100C80000E94F7018BEA91E00E94630289819A81B8
:100C90000E94650A60916A0470916B046115710588
:100CA00049F040916E0450916F0484E694E00E94F4
:100CB000650404C084E694E00E9453048AE694E04C
:100CC0000E9486049DCF89831A82C0906E04D090C2
:100CD0006F049FEFC91AD90AB6018AE694E00E9410
:100CE0002C04882309F48CCF20916A0430916B0482
:100CF00080916E0490916F04B701820F931F0E9440
:100D0000DE0BD0926F04C0926E047ACF8091C6033E
:100D1000882309F424C1C0900801D0900901C601BC
:100D2000A0E0B0E08093710490937204A0937304E8
:100D3000B09374041092700410927504412C512CDD
:100D400063E0662E712C80E591E00E94CF0160E0A7
:100D5000809176040E94D00280EA0E94C80180E05F
:100D60000E94C801182F61E0809176040E94D00291
:100D7000812F8475843579F190917904A301491B01
:100D80005109E6E1F1E06E2F6819262F30E02417B3
:100D900035070CF5633010F4908101C09FEF982364
:100DA00031969111F0CF633028F4F901ED5EFE4FDA
:100DB000108101C010E51F5F633028F4F901E05F86
:100DC000FE4F608101C060E040E08CE29F830E94A2
:100DD0003F039F8102C010E092E0EFEF4E1A5E0ADF
:100DE000923061F4F2E34F16510461F04114510462
:100DF00009F4A9CFC5010197F1F7A5CF82E3481601
:100E0000510459F462E370E080E090E00E94A8038E
:100E100050E0C52E51E0D52E78C0113431F0113597
:100E200031F0113331F020E005C022E403C024E4A6
:100E300001C020E4C60133E0969587953A95E1F725
:100E40008983C294CC0C40EEC422CA821C821B82CD
:100E500080E591E02F830E94CF0160E080917604CD
:100E60000E94D0022F81822F0E94C8016701F601E3
:100E700081916F010E94C8013C10F9CF88E00E9467
:100E8000C80190E0C92E91E0D92EF60181916F0141
:100E90000E94C8010C11F9CF61E0809176040E9494
:100EA000D00280E591E00E94CF0160E0809176045D
:100EB0000E94D002113451F0113521F0113321F488
:100EC00081E805C084E803C080E001C082E80E9498
:100ED000C80161E0809176040E94D002C12CD12C1F
:100EE0001150FFEFCF1ADF0A812F0E941C0383FFEE
:100EF00089CF82E3C816D10409F484CFC114D10488
:100F000081F3C5010197F1F7ECCFF60161916F0113
:100F100070E080E090E04AE00E9483028EEA91E077
:100F20000E946302F8E0CF16F1E0DF0671F78FEA66
:100F300091E00E94750280EB91E00E946302609153
:100F400008017091090180E090E04AE00E9483026C
:100F50008BEA91E00E9463021092C6031EC080914A
:100F6000C503882309F18FEA91E00E944302882398
:100F700009F447C019C00E94C4026093000181E0D7
:100F800090E09093C3038093C20384E694E00E94B0
:100F9000860488EC91E00E9475020E94650130CEC3
:100FA000C7010E94530466CE8091C403882309F4CC
:100FB000C2C08FEA91E00E9443028111BCC00E942E
:100FC000C402709309016093080184E694E00E94D2
:100FD00086048FEA91E00E9475028AEA93E00E94FB
:100FE0006302609108017091090180E090E04AE09D
:100FF0000E9483028BEA91E00E9463021092C40374
:10100000CCCFE091C203F091C303E830F10528F69C
:10101000EC5CFF4F0C94CA090E94C402609301016A
:1010200082E090E09093C3038093C20384E694E04F
:101030000E9486048DEE91E0AECF0E94C4026093C0
:10104000020183E090E09093C3038093C20384E69F
:1010500094E00E94860482E192E09DCF0E94C40247
:101060006093030184E090E09093C3038093C203F4
:1010700084E694E00E94860487E392E08CCF0E948D
:10108000C4026093040185E090E09093C3038093D1
:10109000C20384E694E00E9486048CE592E07BCF54
:1010A0000E94C4026093050186E090E09093C30320
:1010B0008093C20384E694E00E94860481E892E073
:1010C0006ACF0E94C4026093060187E090E090938B
:1010D000C3038093C20384E694E00E94860486EAF8
:1010E00092E059CF0E94C402609307011092C3039B
:1010F0001092C20384E694E00E9486048BEC92E096
:101100000E94750280E0C82E81E0D82EF601619120
:101110006F0170E080E090E04AE00E9483028EEA76
:1011200091E00E946302F8E0CF16F1E0DF0671F76C
:101130001092C50332CF8BEB93E00E9443028823C9
:1011400079F083EF92E00E94750282E393E00E94BF
:10115000750281E08093C50384E694E00E948604D2
:1011600087E593E00E944302882339F081E0809371
:10117000C60384E694E00E9486048EE991E00E9412
:101180004302882341F08CE593E00E94750284E6D7
:1011900094E00E9486048CE693E00E944302882338
:1011A00009F4FBCE84E793E00E94750281E080930E
:1011B000C40384E694E00E948604EFCE8091640428
:1011C000909165040E94650A80916A0490916B0475
:1011D0000C94650ACF93DF93E7ECF3E0138212825D
:1011E00088EE93E0A0E0B0E084839583A683B78384
:1011F0008DE191E09183808385EC90E095878487F1
:1012000084EC90E09787868780EC90E0918B808BD0
:1012100081EC90E0938B828B82EC90E0958B848BB9
:1012200086EC90E0978B868B118E128E138E148E27
:10123000C0E7D4E0198683E894E098878F8389E03B
:101240008E830E94240261E08E810E94D0026FEAA8
:1012500071E08AE694E00E9493046FEA71E084E60C
:1012600094E0DF91CF910C9493041F93FC01992794
:101270008827BC01E89411911032E9F3193010F07D
:101280001E30C8F31B3251F01D3249F4689406C079
:101290000E945C09610F711D811D911D11911053F8
:1012A0001A30B0F33EF490958095709561957F4F1C
:1012B0008F4F9F4F1F910895592F482F372F262F5B
:1012C000660F771F881F991F660F771F881F991F4A
:1012D000620F731F841F951F660F771F881F991F4A
:1012E00008952F923F924F925F926F927F928F92CA
:1012F0009F92AF92BF92CF92DF92EF92FF920F93A5
:101300001F93CF93DF93CDB7DEB7CA1BDB0B0FB6AE
:10131000F894DEBF0FBECDBF09942A88398848886B
:101320005F846E847D848C849B84AA84B984C88401
:10133000DF80EE80FD800C811B81AA81B981CE0FF8
:10134000D11D0FB6F894DEBF0FBECDBFED010895DD
:10135000A1E21A2EAA1BBB1BFD010DC0AA1FBB1FB9
:10136000EE1FFF1FA217B307E407F50720F0A21B2B
:10137000B30BE40BF50B661F771F881F991F1A9498
:1013800069F760957095809590959B01AC01BD01C2
:10139000CF010895EE0FFF1F0590F491E02D099401
:1013A000CF93DF938230910510F482E090E0E091DA
:1013B0008604F091870420E030E0C0E0D0E0309770
:1013C00011F14081518148175907C0F0481759075A
:1013D00061F482819381209719F09B838A832BC0CB
:1013E000909387048093860426C02115310519F057
:1013F0004217530718F49A01BE01DF01EF01028082
:10140000F381E02DDCCF2115310509F1281B390BC3
:101410002430310590F412968D919C9113976115AB
:10142000710521F0FB019383828304C090938704AC
:1014300080938604FD01329644C0FD01E20FF31F44
:1014400081939193225031092D933C933AC020917E
:10145000840430918504232B41F420910C013091B8
:101460000D01309385042093840420910A0130916A
:101470000B012115310541F42DB73EB740910E0106
:1014800050910F01241B350BE0918404F0918504E9
:10149000E217F307A0F42E1B3F0B2817390778F04B
:1014A000AC014E5F5F4F2417350748F04E0F5F1FAA
:1014B00050938504409384048193919302C0E0E0AB
:1014C000F0E0CF01DF91CF9108950F931F93CF9359
:1014D000DF93009709F48CC0FC01329713821282CB
:1014E00000918604109187040115110581F4208173
:1014F0003181820F931F2091840430918504281735
:10150000390779F5F0938504E093840471C0D8011C
:1015100040E050E0AE17BF0750F412962D913C9179
:101520001397AD012115310509F1D901F3CF9D01C3
:10153000DA013383228360817181860F971F8217BE
:10154000930769F4EC0128813981260F371F2E5F3C
:101550003F4F318320838A819B8193838283452BF4
:1015600029F4F0938704E093860442C01396FC9319
:10157000EE931297ED01499159919E01240F351F69
:10158000E217F30771F480819181840F951F029611
:1015900011969C938E938281938113969C938E9344
:1015A0001297E0E0F0E0D80112968D919C9113978C
:1015B000009719F0F8018C01F6CF8D919C9198015C
:1015C0002E5F3F4F820F931F20918404309185043A
:1015D0002817390769F4309729F41092870410927C
:1015E000860402C01382128210938504009384043F
:1015F000DF91CF911F910F910895A0E0B0E0E3E05B
:10160000FBE00C947509EC01009721F4CB010E94DA
:10161000D009B8C0FC01E60FF71F9C012250310928
:10162000E217F30708F4ACC0D9010D911C91119792
:1016300006171707B0F00530110508F49FC0C80160
:1016400004978617970708F499C002501109061BE2
:10165000170B019311936D937C93CF010E94650A40
:101660008DC05B01A01AB10A4C01800E911EA091A1
:101670008604B091870440E050E0E12CF12C1097F3
:1016800009F44AC0A815B905D1F56D907C90119761
:10169000630182E0C80ED11CCA14DB0480F1A301EF
:1016A0004A195B096A0182E0C80ED11C1296BC90EF
:1016B00012971396AC91B5E0CB16D10440F0B282EC
:1016C000A38351834083D9016D937C930AC00E5F3D
:1016D0001F4FC301800F911FF90191838083EB2D70
:1016E000FA2FE114F10431F0D7011396FC93EE9335
:1016F000129744C0F0938704E09386043FC08D9115
:101700009C9111974817590708F4AC017D01129676
:101710000D90BC91A02DB3CF80918404909185044D
:1017200088159905E1F446175707C8F480910A0116
:1017300090910B01009741F48DB79EB740910E0137
:1017400050910F01841B950BE817F907C8F4F0932B
:101750008504E0938404F901718360830FC0CB0199
:101760000E94D0097C01009759F0A801BE010E9497
:10177000CC0BCE010E94650AC70104C0CE0102C095
:1017800080E090E0CDB7DEB7EEE00C94910981E007
:1017900090E0F8940C94E50BFB01DC0102C0019091
:1017A0000D9241505040D8F70895FB01DC018D9116
:1017B000019080190110D9F3990B0895FB01DC0108
:1017C00001900D920020E1F7089510E0C5E6D0E009
:1017D00004C0FE010E94CA092196C636D107C9F786
:0417E000F894FFCFAB
:1017E400903FFC000000000010020000880480000C
:1017F40004081030405004104000000000FC00F7C2
:101804000194004301C500A300B70043414E2042A8
:10181400555320536869656C6420696E6974206649
:1018240061696C0020496E69742043414E20425521
:101834005320536869656C6420616761696E004375
:10184400414E2042555320536869656C6420696E8B
:101854006974206F6B210056616C696420636F6D3D
:101864006D616E64733A2073656E64202C20656428
:101874006974202C20616464726573732C20736511
:101884007175656E6365003E3E3E000D0A000900F9
:1018940043414E206D6573736167652073656E7493
:1018A40020746F2049442000456E7465722074686A
:1018B4006520582076616C75653A205B302C582C75
:1018C400302C302C302C302C302C305D00456E7494
:1018D40065722074686520582076616C75653A20BD
:1018E4005B302C302C582C302C302C302C302C30BD
:1018F4005D00456E746572207468652058207661B9
:101904006C75653A205B302C302C302C582C302CE4
:10191400302C302C305D00456E746572207468651F
:1019240020582076616C75653A205B302C302C3061
:101934002C302C582C302C302C305D00456E7465C6
:10194400722074686520582076616C75653A205B56
:10195400302C302C302C302C302C582C302C305D4A
:1019640000456E7465722074686520582076616C39
:1019740075653A205B302C302C302C302C302C30D8
:101984002C582C305D00456E746572207468652097
:10199400582076616C75653A205B302C302C302CE5
:1019A400302C302C302C302C585D0056616C756511
:1019B400732073746F72656420696E206172726142
:1019C4007920666F722043414E206D6573736167A1
:1019D400652100456E74657220796F7572206D659E
:1019E400737361676520696E207061697273206F1B
:1019F400662062797465732028696E746567657200
:101A04002076616C75657320302D323535212121A6
:101A14002900456E746572207468652058207661CB
:101A24006C75653A205B582C302C302C302C302CC3
:101A3400302C302C305D0073656E640073657175F5
:101A4400656E636520697320574950006164647250
:101A540065737300456E74657220616E2061646401
:101A6400726573732028696E74656765722030200F
:101A7400746F2034303935292065782E203078323F
:101A840031302069732035323800416464726573E3
:101A9400732073657420746F3A2000656469740060
:00000001FF
